:100000000C94F1000C940E010C940E010C940E0152
:100010000C940E010C940E010C940E010C940E0124
:100020000C940E010C940E010C940E010C940E0114
:100030000C940E010C940E010C940E010C940E0104
:100040000C940E010C940E010C9405060C94E7051B
:100050000C940E010C940E010C940E010C940E01E4
:100060000C940E010C940E01556E6C75636B696CEB
:10007000792067636320737472696E6720706F6C98
:100080006C696E6720646F65736E277420776F727A
:100090006B20666F722050524F474D454D2F505385
:1000A0005452282920737472696E6773004E414E52
:1000B000494E495459494E46CDCCCC3D0AD7233CF4
:1000C00017B7D13877CC2B329595E6241FB14F0A5C
:1000D000000020410000C84200401C4620BCBE4C2D
:1000E000CA1B0E5AAEC59D7400407A10F35A00A088
:1000F000724E18090010A5D4E80000E876481700F1
:1001000000E40B54020000CA9A3B000000E1F50530
:10011000000080969800000040420F000000A0867A
:1001200001000000102700000000E80300000000AC
:100130006400000000000A00000000000100000050
:1001400000002C76D888DC674F0823DFC1DFAE596A
:10015000E1B1B796E5E3E453C63AE651997696E8FD
:10016000E6C28426EB898C9B62ED407C6FFCEFBC81
:100170009C9F40F2BAA56FA5F490055A2AF75C93AC
:100180006B6CF9676DC11BFCE0E40D47FEF520E6E2
:10019000B500D0ED902E0300943577050080841EC5
:1001A000080000204E0A000000C80C333333330F20
:1001B000986E12831141EF8D2114893BE65516CFBD
:1001C000FEE6DB18D1844B381BF77C1D901DA4BBC9
:1001D000E424203284725E228100C9F124ECA1E57E
:1001E0003D2711241FBECFEFD8E0DEBFCDBF11E009
:1001F000A0E0B1E0E2E0F9E102C005900D92AA3A78
:10020000B107D9F721E0AAEAB1E001C01D92A63FEB
:10021000B207E1F70E9410010C947F0C0C940000CF
:1002200086E08093C20087E68093C4001092C500E8
:1002300088E98093C1008CE191E09093F101809373
:10024000F0019093EF018093EE01789461E080E1FA
:100250000E94C80261E081E10E94C80261E082E17F
:100260000E94C80261E083E10E94C80261E084E16B
:100270000E94C80261E085E10E94C80261E08FE14E
:100280000E94C80261E08EE10E94C80261E08DE137
:100290000E94C80261E08CE10E94C8028AE291E0FB
:1002A0000E94A703C0E0A12CB12CC12CD12CE12CC1
:1002B000F12C00E010E0D0E080E10E9444038130A6
:1002C00061F4D1110AC083E491E00E94A7038AE09F
:1002D00090E00E94BD02D1E010C080E10E94440382
:1002E00081110BC0D13041F488E491E00E94A70352
:1002F0008AE090E00E94BD02D0E081E10E944403C8
:10030000813061F411110AC08DE491E00E94A703CD
:100310008AE090E00E94BD0211E010C081E10E94DD
:10032000440381110BC0113041F482E591E00E9439
:10033000A7038AE090E00E94BD0210E082E10E94E3
:100340004403813061F401110AC087E591E00E9405
:10035000A7038AE090E00E94BD0201E010C082E1A4
:100360000E94440381110BC0013041F48CE591E0FF
:100370000E94A7038AE090E00E94BD0200E083E1B2
:100380000E944403813069F4F1100BC081E691E0D2
:100390000E94A7038AE090E00E94BD02FF24F3942C
:1003A00011C083E10E94440381110CC081E0F81266
:1003B00008C086E691E00E94A7038AE090E00E94D0
:1003C000BD02F12C84E10E944403813069F4E11004
:1003D0000BC08BE691E00E94A7038AE090E00E94A8
:1003E000BD02EE24E39411C084E10E944403811114
:1003F0000CC081E0E81208C080E791E00E94A703EA
:100400008AE090E00E94BD02E12C85E10E94440355
:10041000813069F4D1100BC085E791E00E94A703F9
:100420008AE090E00E94BD02DD24D39411C085E1F2
:100430000E94440381110CC081E0D81208C08AE7F1
:1004400091E00E94A7038AE090E00E94BD02D12CB7
:100450008FE10E944403813069F4C1100BC08FE723
:1004600091E00E94A7038AE090E00E94BD02CC24A4
:10047000C39411C08FE10E94440381110CC081E03C
:10048000C81208C084E891E00E94A7038AE090E0C7
:100490000E94BD02C12C8EE10E944403813069F4A8
:1004A000B1100BC089E891E00E94A7038AE090E0B8
:1004B0000E94BD02BB24B39411C08EE10E9444038C
:1004C00081110CC081E0B81208C08EE891E00E9452
:1004D000A7038AE090E00E94BD02B12C8DE10E944A
:1004E0004403813069F4A1100BC083E991E00E94BC
:1004F000A7038AE090E00E94BD02AA24A39411C041
:100500008DE10E94440381110CC081E0A81208C053
:1005100088E991E00E94A7038AE090E00E94BD0272
:10052000A12C8CE10E944403813061F4C1110AC006
:100530008DE991E00E94A7038AE090E00E94BD024D
:10054000C1E0BACE8CE10E9444038111B5CEC13026
:1005500011F0C0E0B1CE83EA91E00E94A7038AE0E7
:1005600090E00E94BD02F5CF009731F025E02A957A
:10057000F1F700000197F8CF0895009741F0EFE9F7
:10058000FFE03197F1F700C000000197F6CF089522
:10059000282F27708695869586958230A9F083301E
:1005A00021F1813091F534B181E090E0022E01C05B
:1005B000880F0A94EAF7662319F0382B34B90895A6
:1005C0008095832384B9089537B181E090E0022EAD
:1005D00001C0880F0A94EAF7662319F0382B37B95F
:1005E00008958095832387B908953AB181E090E01A
:1005F000022E01C0880F0A94EAF7662319F0382BFF
:100600003AB90895809583238AB90895282F2770D1
:100610008695869586958230A9F0833021F18130C8
:1006200091F535B181E090E0022E01C0880F0A9467
:10063000EAF7662319F0382B35B90895809583239E
:1006400085B9089538B181E090E0022E01C0880F8D
:100650000A94EAF7662319F0382B38B90895809583
:10066000832388B908953BB181E090E0022E01C058
:10067000880F0A94EAF7662319F0382B3BB90895DE
:10068000809583238BB90895282F277086958695AA
:100690008695823031F0833031F0813069F483B156
:1006A00003C086B101C089B190E002C095958795DD
:1006B0002A95E2F78170089580E00895E1ECF0E07A
:1006C00010828093C4009093C50088E980830895C8
:1006D0009091CC0193959F71B091CA01B917E1F344
:1006E000A92FB0E0A253BE4F8C93F8949093CC0105
:1006F0009091C10090629093C1001895CF93C82F3C
:100700008A3019F48DE00E9468038C2F0E946803E0
:1007100080E090E0CF9108959091CC019F5F9F7110
:100720002091CA01291789F0A92FB0E0A253BE4F2A
:100730008C932FB7F8949093CC018091C100806284
:100740008093C1002FBF81E0089580E00895FC01EF
:100750008191882311F0BCDFFBCF0895FC016E0F5F
:100760006E1719F08191B4DFFBCF0895FC018591DC
:10077000882311F0ADDFFBCF0895CF93DF93CDB782
:10078000DEB727970FB6F894DEBF0FBECDBF4AE0A5
:10079000BE016F5F7F4F0E949506CE0101960E94B9
:1007A000A70327960FB6F894DEBF0FBECDBFDF912B
:1007B000CF910895CF93DF93CDB7DEB761970FB692
:1007C000F894DEBF0FBECDBF462F50E0BE016F5F75
:1007D0007F4F0E948A06CE0101960E94A703619670
:1007E0000FB6F894DEBF0FBECDBFDF91CF91089555
:1007F000CF93DF93CDB7DEB727970FB6F894DEBF60
:100800000FBECDBF4AE0BE016F5F7F4F0E940F0752
:10081000CE0101960E94A70327960FB6F894DEBF7B
:100820000FBECDBFDF91CF910895CF93DF93CDB7AA
:10083000DEB761970FB6F894DEBF0FBECDBF462F6F
:1008400050E0BE016F5F7F4F0E940407CE0101960A
:100850000E94A70361960FB6F894DEBF0FBECDBF0E
:10086000DF91CF910895CF93C82F982F92959F70C5
:100870009A3010F480E301C087E5890F0E94680375
:100880008C2F8F708A3010F4805D01C0895A0E94CD
:100890006803CF910895CF93DF93CDB7DEB72C9740
:1008A0000FB6F894DEBF0FBECDBF2AE0AE014F5F9A
:1008B0005F4F0E94AB06CE0101960E94A7032C96C3
:1008C0000FB6F894DEBF0FBECDBFDF91CF91089574
:1008D000CF93DF93CDB7DEB761970FB6F894DEBF45
:1008E0000FBECDBF242F30E0AE014F5F5F4F0E949F
:1008F000A006CE0101960E94A70361960FB6F89458
:10090000DEBF0FBECDBFDF91CF910895CF93DF93B0
:10091000CDB7DEB72C970FB6F894DEBF0FBECDBFB4
:100920002AE0AE014F5F5F4F0E94E206CE010196C2
:100930000E94A7032C960FB6F894DEBF0FBECDBF62
:10094000DF91CF910895CF93DF93CDB7DEB7619755
:100950000FB6F894DEBF0FBECDBF242F30E0AE013E
:100960004F5F5F4F0E94D706CE0101960E94A703FA
:1009700061960FB6F894DEBF0FBECDBFDF91CF9169
:1009800008950F931F93CF93DF93CDB7DEB7609792
:100990000FB6F894DEBF0FBECDBF8E010F5F1F4FA5
:1009A00026E04FE00E9420069801C9012F5F3F4FCB
:1009B000FC0140814032C9F30E94A70360960FB644
:1009C000F894DEBF0FBECDBFDF91CF911F910F9185
:1009D00008950F931F93CF93DF93CDB7DEB7609742
:1009E0000FB6F894DEBF0FBECDBF242F8E010F5F70
:1009F0001F4F4FE00E9420069801C9012F5F3F4F13
:100A0000FC0140814032C9F30E94A70360960FB6F3
:100A1000F894DEBF0FBECDBFDF91CF911F910F9134
:100A200008959091CA018091CC019813FACF08954E
:100A30009091CB018091CD01981751F09F5F9F71EC
:100A4000A92FB0E0A655BE4F8C919093CB0108958D
:100A500080E00895FC016A9521F0EADF819381111D
:100A6000FACF10820895FC016A9551F0E1DF8823E6
:100A7000E9F38D3011F08193F7CFDADF8823E9F3C2
:100A800010820895FC01D4DF8132E8F381936A95E6
:100A90006A9561F0CDDF8823E9F38D3021F0813252
:100AA00028F08193F5CFC4DF8823E9F310820895FD
:100AB000CF93DF93CDB7DEB727970FB6F894DEBF9D
:100AC0000FBECDBF67E0CE0101960E944205CE0168
:100AD00001960E94450627960FB6F894DEBF0FBE1A
:100AE000CDBFDF91CF910895CF93DF93CDB7DEB720
:100AF0002C970FB6F894DEBF0FBECDBF6CE0CE01D1
:100B000001960E944205CE0101960E9463062C9632
:100B10000FB6F894DEBF0FBECDBFDF91CF91089521
:100B2000CF93DF93CDB7DEB7A0970FB6F894DEBFB3
:100B30000FBECDBF60E2CE0101960E944205CE01FC
:100B400001960E944106A0960FB6F894DEBF0FBE34
:100B5000CDBFDF91CF9108959091CB018091CD01D0
:100B6000981759F09F5F9F71A92FB0E0A655BE4F0F
:100B70008C919093CB0190E008958FEF9FEF0895B3
:100B80000E94AC0597FDFCCF0E94680390E0089599
:100B90002091CB013091CD01231769F02F5F2F7188
:100BA000E22FF0E0E655FE4F3081FC0130832093C8
:100BB000CB0181E0089580E00895E091CB01F0E061
:100BC0003196EF71FF27E655FE4F808108950F9310
:100BD0000FB7EF93FF93E091CA01F091CC01E39539
:100BE000EF71EF1305C0F091C100FF7DF093C100DC
:100BF000E093CA01F0E0E253FE4FE081E093C600CB
:100C0000FF91EF910FBF0F9118950F930FB79F931F
:100C10009091C600EF93FF93E091CD01F091CB014D
:100C2000E395EF71FE1731F0E093CD01F0E0E6556A
:100C3000FE4F9083FF91EF919F910FBF0F911895F9
:100C4000EF920F931F93CF93DF93E80147FF02C00A
:100C500034E101C034E0E42FFF27E7FDF095F7FF12
:100C600003C0F195E195F109E32E022F2E2FAE017D
:100C70000E942907CE01DF91CF911F910F91EF9034
:100C80000895662777270C94A708FC0188279927E1
:100C9000E89421912032E9F3293010F02E30C8F386
:100CA0002B3241F02D3239F4689404C00E94CF06F3
:100CB000820F911D219120532A30C0F31EF490958C
:100CC00081959F4F08951F93FC0199278827BC01A8
:100CD000E89411911032E9F3193010F01E30C8F386
:100CE0001B3251F01D3249F4689406C00E94BA06C6
:100CF000610F711D811D911D119110531A30B0F3B8
:100D00003EF490958095709561957F4F8F4F9F4FE2
:100D10001F9108954532510520F4423010F00C9493
:100D20009506FB011082CB010895BB274A3031F4B0
:100D3000992322F4BDE2909581959F4F0C94100762
:100D40002532310520F4223010F00C94AB06FA0164
:100D50001082CA010895BB272A3051F4992342F426
:100D6000BDE290958095709561957F4F8F4F9F4F15
:100D70000C94E306592F482F372F262F660F771F25
:100D8000881F991F660F771F881F991F620F731F97
:100D9000841F951F660F771F881F991F08957AE09B
:100DA000979F902D879F802D910D112408952532B6
:100DB000310520F4223010F00C94E206FA01108282
:100DC000CA010895BB27FA01A62F62177105810594
:100DD0009105330B30FB66F0AA27660F771F881F3B
:100DE000991FAA1FA21710F0A21B63953850A9F7EC
:100DF000A05DAA3308F0A95DA19336F7B111B193B4
:100E00001082CA010C94020B4532510520F4423085
:100E100010F00C940F07FB011082CB010895BB2743
:100E2000FB015527AA27880F991FAA1FA41710F0A6
:100E3000A41B83955051B9F7A05DAA3308F0A95DB2
:100E4000A193009779F7B111B1931192CB010C9452
:100E5000020B6F927F929F92AF92BF92CF92DF92DE
:100E6000EF92FF920F931F93CF93DF93CDB7DEB72F
:100E700029970FB6F894DEBF0FBECDBF6A01B22E20
:100E8000102F0C3320F4FF24F394F00E02C04CE337
:100E9000F42E0F2D27E0AE014F5F5F4F0E940A0A2C
:100EA0007981272F2970213031F0E1FC06C0E0FC68
:100EB00006C060E005C06DE203C06BE201C060E205
:100EC000AE2DA07173FF36C0662311F084E001C01F
:100ED00083E08B1510F4B81A01C0B12CA1110BC01E
:100EE000F6018B2D90E2882319F091938150FBCF6E
:100EF000CB0CD11CB12C662331F0F6016083960136
:100F00002F5F3F4F6901C6010396E2FE05C02EE444
:100F1000F601208331E404C02EE6F601208331E699
:100F200031832283FC012B2D30E22223F1F1319316
:100F30002150FBCF72FF40C0662311F084E001C056
:100F400083E08B1510F4B81A01C0B12CA1110BC0AD
:100F5000F6018B2D90E2882319F091938150FBCFFD
:100F6000CB0CD11CB12C662331F0F60160839601C5
:100F70002F5F3F4F6901C6010396E2FE07C029E4D7
:100F8000F60120832EE4218326E406C029E6F6013B
:100F900020832EE6218326E62283FC012B2D30E2DE
:100FA000222319F031932150FBCFFC01EB0DF11DF1
:100FB00010828EEF9FEFB7C0B1E0611101C0B0E0C9
:100FC0004B2F50E01816190624F49C012F5F3F4F59
:100FD00002C021E030E0240F351F112329F0412FFA
:100FE00050E04F5F5F4F02C040E050E0420F531FA0
:100FF0002B2D30E04217530714F4B41A01C0B12C62
:101000002E2D287159F4F6012B2D30E2222319F0F0
:1010100031932150FBCFCB0CD11CB12CBB2331F031
:10102000F601608396012F5F3F4F6901A1110BC04C
:10103000F6012B2D30E3222319F031932150FBCF01
:10104000CB0CD11CB12CF80E0A81372F3071A32E96
:1010500074FF03C0013309F4FA941F142CF42F2DEC
:10106000293018F028E001C021E0682F392F97FFC0
:1010700002C060E030E0462F532F612C712C3EE21D
:10108000932EBC01621B71099B01DC01A41BB50BF3
:10109000E1E0F0E0EC0FFD1FAE0FBF1FE12EF12CE1
:1010A000F194E194F1084F3FFFEF5F0731F4F6014F
:1010B0009082B6016F5F7F4F6B01841795074CF0EC
:1010C0002417350734F4BD01660D771DFB0111812E
:1010D00001C010E341505109FFEF6F1A7F0AB601BA
:1010E0006F5F7F4F4E155F0524F0F60110836B0193
:1010F000DACF4817590739F4063320F4053319F4C9
:10110000A11001C011E3F6011083FB018B2D90E2C9
:10111000882319F091938150FBCFFB01EB0DF11D5A
:10112000108280E090E029960FB6F894DEBF0FBEE3
:10113000CDBFDF91CF911F910F91FF90EF90DF9086
:10114000CF90BF90AF909F907F906F900895A0E058
:10115000B0E0EDEAF8E00C943F0C8B0161157105ED
:1011600021F0DB018C9311969C93EC015E01BFEFA3
:10117000AB1ABB0A7501C8808C2D90E00E94E20A70
:10118000892B11F0E501F2CFEDE2CE1208C07E010D
:10119000F2E0EF0EF11CC980DD24D39409C02BE2EC
:1011A000C21205C07E0142E0E40EF11CC980D12CC0
:1011B000E701219743E050E065EB70E0CE010E942B
:1011C000EA0A892BC1F4239645E050E060EB70E019
:1011D000CE010E94EA0A892B09F425960115110512
:1011E00019F0D801CD93DC93D11006C160E070E016
:1011F00080E89FE70AC143E050E06DEA70E0CE016D
:101200000E94EA0A892B59F40115110509F4F9C065
:10121000B2E0EB0EF11CF801F182E082F2C0F701BE
:1012200060E070E0CB01C0E0D0E07F01A0EDAA2E2D
:10123000AC0C29E02A1530F14D2D4260B42E2D2D35
:101240002870D2FE04C0211125C0219623C021118F
:101250002197A5E0B0E09B01AC010E942E0C660F27
:10126000771F881F991F6A0D711D811D911D683997
:10127000A9E97A078A07A9E19A0760F0BD2DB6604F
:10128000BB2E08C02EEFA2120AC0D3FC50C04D2DB9
:101290004860B42E3196D701CC90DB2CC6CF2C2DD4
:1012A0002F7D253409F043C0A081AD3241F4BD2D1E
:1012B000B061DB2E7F0122E0E20EF11C0CC07F0149
:1012C000AB3231F04FEFE41AF40A21E030E006C00F
:1012D000A2E0EA0EF11CA18122E030E0A053AA3086
:1012E00018F0E21AF30A23C0F70120E030E02038BA
:1012F000BCE03B075CF4A901440F551F440F551F88
:10130000240F351F220F331F2A0F311DAF014F5FEE
:101310005F4F7A01A081A053AA3010F4FA01E7CF01
:10132000D4FE03C0319521953109C20FD31FD1FEE0
:1013300009C00115110531F0E1E0EE1AF108D801FC
:10134000ED92FC920E94160B2D2D2370233019F084
:101350004B015C0106C04B015C01B7FAB094B7F8D1
:10136000B09420E030E0A901C501B4010E94120B45
:10137000882309F43EC0D7FF06C0D195C195D10995
:101380000CEC10E002C004EE10E06801B8E1CB1AEA
:10139000D10890E2E92EF12CCE15DF0574F0F801AA
:1013A0002591359145915491C501B4010E94770B67
:1013B0004B015C01CE19DF09EFCF04501109F59400
:1013C000E7940C151D0541F78A2D880F8B2D881F7A
:1013D0008F3F49F020E030E0A901C501B4010E942F
:1013E000120B811106C082E290E09093F501809388
:1013F000F401C501B40109C060E070E080E89FEF2E
:1014000004C060E070E080EC9FE7CDB7DEB7ECE0B1
:101410000C945B0C283008F027E03327DA01990F91
:10142000311D87FD916000966105710539F43260C8
:101430002E5F3D9330E32A95E1F708959F3F30F00A
:1014400080387105610509F03C5F3C5F3D93913048
:1014500008F08068911DDF93CF931F930F93FF9245
:10146000EF92192F987F9695E92F96959695E90F0B
:10147000FF27EE5BFE4F99273327EE24FF24A701B9
:10148000E70105900894079428F4360FE71EF81E2C
:10149000491F511D660F771F881F991F0694A1F7DA
:1014A0000590079428F4E70EF81E491F561FC11D2A
:1014B000770F881F991F661F0694A1F70590079460
:1014C00028F4F80E491F561FC71FD11D880F991FFA
:1014D000661F771F0694A1F70590079420F4490F23
:1014E000561FC71FD81F990F661F771F881F0694A6
:1014F000A9F784911095177041F0D695C795579527
:101500004795F794E7941A95C1F7E8EEF0E06894F0
:101510001590159135916591959105907FE27395A0
:10152000E118F10A430B560BC90BD009C0F7E10CC7
:10153000F11E431F561FC91FD01D7EF4703311F4D6
:101540008A95E6CFE894015030F0080F0AF400279E
:10155000021708F4202F2395022F7A3328F079E31D
:101560007D932A95E9F710C07D932A9589F6069414
:1015700097956795379517951794E118F10A430BDE
:10158000560BC90BD00998F023957E9173957A3349
:1015900008F070E37C932013B8F77E9170617D931F
:1015A00030F0839571E37D9370E32A95E1F7112480
:1015B000EF90FF900F911F91CF91DF91992787FDB9
:1015C000909508959111F6C0803219F08950855098
:1015D000D0F70895FB01DC014150504088F08D9117
:1015E00081341CF08B350CF4805E659161341CF005
:1015F0006B350CF4605E861B611171F3990B0895D5
:10160000881BFCCFDC01FC01672F71917723E1F788
:10161000329704C07C916D9370836291AE17BF07BF
:10162000C8F3089540D008F481E00895E89409C013
:1016300097FB3EF490958095709561957F4F8F4F05
:101640009F4F9923A9F0F92F96E9BB279395F6951B
:10165000879577956795B795F111F8CFFAF4BB0F99
:1016600011F460FF1BC06F5F7F4F8F4F9F4F16C0FD
:10167000882311F096E911C0772321F09EE8872F87
:10168000762F05C0662371F096E8862F70E060E043
:101690002AF09A95660F771F881FDAF7880F9695BC
:1016A000879597F90895990F0008550FAA0BE0E860
:1016B000FEEF16161706E807F907C0F01216130614
:1016C000E407F50798F0621B730B840B950B39F454
:1016D0000A2661F0232B242B252B21F408950A26BA
:1016E00009F4A140A6958FEF811D811D08950BD0AF
:1016F0007BC06CD028F071D018F0952309F05DC044
:1017000062C01124A5C081D0A0F3959FD1F3950F9D
:1017100050E0551F629FF001729FBB27F00DB11D75
:10172000639FAA27F00DB11DAA1F649F6627B00D05
:10173000A11D661F829F2227B00DA11D621F739FEE
:10174000B00DA11D621F839FA00D611D221F749FFC
:101750003327A00D611D231F849F600D211D822F43
:10176000762F6A2F11249F5750408AF0E1F088238A
:101770004AF0EE0FFF1FBB1F661F771F881F915097
:101780005040A9F79E3F510570F017C061C05F3F00
:10179000ECF3983EDCF3869577956795B795F795CA
:1017A000E7959F5FC1F7FE2B880F911D9695879552
:1017B00097F9089599278827089597F99F6780E8F2
:1017C00070E060E008959FEF80EC089500240A9493
:1017D0001616170618060906089500240A9412160C
:1017E0001306140605060895092E0394000C11F43F
:1017F000882352F0BB0F40F4BF2B11F460FF04C0EC
:101800006F5F7F4F8F4F9F4F089557FD9058440F44
:10181000551F59F05F3F71F04795880F97FB991F4F
:1018200061F09F3F79F0879508951216130614060C
:10183000551FF2CF4695F1DF08C016161706180699
:10184000991FF1CF86957105610508940895E89474
:10185000BB2766277727CB0197F908950E94700C64
:10186000A59F900DB49F900DA49F800D911D1124F4
:1018700008952F923F924F925F926F927F928F9234
:101880009F92AF92BF92CF92DF92EF92FF920F930F
:101890001F93CF93DF93CDB7DEB7CA1BDB0B0FB619
:1018A000F894DEBF0FBECDBF09942A8839884888D6
:1018B0005F846E847D848C849B84AA84B984C8846C
:1018C000DF80EE80FD800C811B81AA81B981CE0F63
:1018D000D11D0FB6F894DEBF0FBECDBFED01089548
:1018E000A29FB001B39FC001A39F700D811D112461
:1018F000911DB29F700D811D1124911D0895F894C2
:02190000FFCF17
:1019020000000002000000007E0300000000000052
:101912000001000000000000C005000000000003FC
:10192200000000007E03C005000050524F475241A4
:101932004D204953205354415254494E472E2E2E86
:101942000D0A0064310D0A0075310D0A0064320D72
:101952000A0075320D0A0064330D0A0075330D0A50
:101962000064340D0A0075340D0A0064350D0A0056
:1019720075350D0A0064360D0A0075360D0A0064CD
:10198200370D0A0075370D0A0064380D0A007538E4
:101992000D0A0064390D0A0075390D0A00643130F0
:0A19A2000D0A007531300D0A000037
:00000001FF
